:020000040800F2
:10000000F004002065010008A90700084B0400085F
:1000100000000000000000000000000000000000E0
:10002000000000000000000000000000C9090008F6
:1000300000000000000000001D0800082D0B000853
:100040007701000800000000770100087701000830
:1000500077010008770100087701000877010008A0
:100060007701000877010008770100087701000890
:100070007701000877010008770100087701000880
:1000800000000000770100080000000000000000F0
:100090000000000077010008770100085104000803
:1000A0000000000077010008000000007701000850
:1000B0000000000000000000000000000000000040
:1000C00000F002F800F03EF80CA030C80838241800
:1000D0002D18A246671EAB4654465D46AC4201D180
:1000E00000F030F87E460F3E0FCCB6460126334274
:1000F00000D0FB1AA246AB4633431847BC0C0000A5
:10010000DC0C0000103A02D378C878C1FAD8520744
:1001100001D330C830C101D504680C6070470000BD
:100120000023002400250026103A01D378C1FBD813
:10013000520700D330C100D50B6070471FB51FBDFB
:1001400010B510BD00F0DCF81146FFF7F7FF00F026
:1001500005FE00F0F4F803B4FFF7F2FF03BC00F073
:10016000B7FD00000748804707480047FEE7FEE765
:10017000FEE7FEE7FEE7FEE704480549054A064BB1
:1001800070470000310B0008C1000008F00000209B
:10019000F0040020F0020020F0020020704700224E
:1001A00003098B422CD3030A8B4211D300239C46B4
:1001B0004EE003460B433CD4002243088B4231D32C
:1001C00003098B421CD3030A8B4201D394463FE0C0
:1001D000C3098B4201D3CB01C01A524183098B4220
:1001E00001D38B01C01A524143098B4201D34B0109
:1001F000C01A524103098B4201D30B01C01A52416C
:10020000C3088B4201D3CB00C01A524183088B42F2
:1002100001D38B00C01A524143088B4201D34B00DB
:10022000C01A5241411A00D201465241104670474D
:100230005DE0CA0F00D04942031000D34042534052
:1002400000229C4603098B422DD3030A8B4212D312
:10025000FC22890112BA030A8B420CD38901921144
:100260008B4208D3890192118B4204D389013AD081
:10027000921100E08909C3098B4201D3CB01C01A56
:10028000524183098B4201D38B01C01A5241430969
:100290008B4201D34B01C01A524103098B4201D357
:1002A0000B01C01A5241C3088B4201D3CB00C01AC4
:1002B000524183088B4201D38B00C01A5241D9D2DC
:1002C00043088B4201D34B00C01A5241411A00D25D
:1002D0000146634652415B10104601D34042002B59
:1002E00000D54942704763465B1000D3404201B5D8
:1002F0000020C046C04602BD704770477047704737
:10030000754600F025F8AE46050069465346C0081C
:10031000C000854618B020B5FFF72EFF60BC00274F
:100320004908B6460026C0C5C0C5C0C5C0C5C0C5C1
:10033000C0C5C0C5C0C5403D49008D46704710B519
:100340000446C046C0462046FFF705FF10BD00002A
:100350000048704790000020F0B5002200230024E0
:1003600000BF3DE0012595402B460D681D402C4601
:100370009C4234D10D79012D02D00D79022D16D178
:10038000856857000326BE40B54385604D79560009
:10039000B540866835438560456801269640B5437B
:1003A000456045688E799640B6B23543456005682C
:1003B00057000326BE40B54305600D795600B54091
:1003C000066835430560C56857000326BE40B5433F
:1003D000C560CD795600B540C6683543C560521C2E
:1003E000102ABFD30D7A002D04D1056B0E6835435A
:1003F000056303E0056B0E68B5430563F0BDF0B51A
:10040000002300244D07EE0E1546B5402B46CD10B7
:10041000AE0005462035AD594E07F70E0F26BE40FB
:10042000B543CE10B60007462037BD51CD10AE0003
:100430003D46AD591D432C46CD10AD003E4674518E
:10044000F0BD816270478161704700BFFEE7000028
:1004500010B502213C4800F093F8002818D0022182
:10046000394800F07FF8394802780078401C374B53
:1004700018703748815C344800F0EEF83348007853
:100480003449097888425EDB0020304908705AE020
:1004900004212D4800F074F8002818D02A4800F0F4
:1004A000D7F82D490A780978491C2B4B197028492F
:1004B00088540421244800F055F82748007827493B
:1004C000097888423FDB0020234908703BE0202167
:1004D0001D4800F055F8002835D021480078002844
:1004E00002D001282ED119E000201B4908701749BD
:1004F00008701B480078401C1949087020211248D8
:1005000000F030F8114802780078401C0F4B18704A
:100510000F48815C0C4800F09FF813E00A4880699E
:10052000012108430849886108468069022108437F
:10053000054988612021044800F014F8002008498A
:10054000087000BF00BF10BD005400400400002030
:1005500010000020060000200500002007000020F9
:1005600008000020C1617047002904D002680123FF
:100570001A43026003E002685208520002607047AA
:1005800070B502460023002000243F252D020D40B7
:10059000002D04D01568802635402C460BE0C02580
:1005A0000D40002D04D01568402635402C4602E051
:1005B00015680D402C4693691D460D402B46002BB7
:1005C00003D0002C01D0012000E0002070BD002AE3
:1005D00003D003680B43036002E003688B430360AE
:1005E0007047000010B50A46002103685B085B00F5
:1005F00003600168144B1940946824025368234334
:10060000194301600F2424061368A34303610368A0
:1006100001242343036000218160C1601469936950
:1006200023431946816083680124E40323438360E4
:10063000D16803680B4303604168044B1940536958
:100640001943416010BD0000FFE0CF00FF7FFF07AE
:100650000146486AC0B2704781627047002905D0E0
:10066000026801231B041A43026004E002680123AC
:100670001B049A4302607047002905D002680123D9
:100680005B049A43026004E0026801235B041A439E
:100690000260704700B58BB00121880400F0C0F8FB
:1006A0000121880700F0CCF8022108A8017101217E
:1006B00081713020089008A8C171417108A92248B1
:1006C000FFF74AFE002204211F48FFF798FE002290
:1006D00005211D48FFF793FE1C48006804210843CC
:1006E0001A490860102000F061F90121480500F066
:1006F000A7F80020069007900290039004900B202A
:10070000000501902020059000211148FFF7B4FF5B
:1007100000210F48FFF7A2FF01A90D48FFF762FF74
:1007200001222E210A48FFF752FF17216846017067
:1007300001218170417000F039F801210448FFF770
:1007400013FF0BB000BD000000040048007C014016
:10075000005400400EB50121480400F061F8042067
:1007600000900121684601710021817101214171D0
:1007700000210172C17169460920C006FFF7ECFD36
:1007800004210920C006FFF75EFE0EBD10B504214E
:100790000920C006FFF757FE10BD10B5042109203F
:1007A000C006FFF74EFE10BD7047000000218278A2
:1007B000002A27D0184A03231B02D21803789B1063
:1007C0009B00D15802789207D30EFF229A400B4625
:1007D0009343194642789207120E03789B07DB0E6B
:1007E0009A4011430C4A03231B02D21803789B1032
:1007F0009B00D1500278D306DB0E01229A40064BB3
:100800001A6007E00278D306DB0E01229A40024B01
:1008100080331A607047000000E100E0704700007C
:10082000002905D0054A52690243044B5A6104E08D
:10083000024A52698243014B5A61704700100240DC
:10084000002905D0054AD2690243044BDA6104E06D
:10085000024AD2698243014BDA61704700100240BC
:10086000002905D0054A92690243044B9A6104E0CD
:10087000024A92698243014B9A617047001002401C
:1008800070B5044600250026424840680C21084007
:100890000546002D04D0042D05D00C2D0AD105E00D
:1008A0003D48206009E03C48206006E07D20800251
:1008B000206000BF3848206000BF00BF3548406856
:1008C000F021084005462D09680034490E5A31468A
:1008D0002068FFF764FC60602E4840680721090229
:1008E000084005462D0A2E48465D6068F040A0602D
:1008F0002C480069800F800700280DD12548C030A2
:10090000806A1F21890608400546AD0EA91C2648AD
:10091000FFF745FCE06016E022480069800F800781
:1009200001218907884203D0A0684008E0600AE0FE
:100930001C480069800F80070121C907884202D046
:10094000A0688008E0601348006B10210840102860
:1009500002D01148206101E0206820610D48006B41
:100960008007800F002802D1A068606110E009486C
:10097000006B8007800F012802D12068606107E0CA
:100980000448006B8007800F032801D10248606192
:1009900070BD0000001002400048E8018E0D000804
:1009A000AE0D0008002401400090D0030549096BFA
:1009B00010229143034A11631146096B01431163ED
:1009C000704700000010024070470000F8B5002595
:1009D000002600270020009000240E48056A280CFD
:1009E0000090ACB20098204000280FD10A48076858
:1009F0000A480740E006000E6105890E0902084317
:100A000006460548006830430349086000F008F8CE
:100A1000F8BD000000F8FF1F001002400700FFFFB4
:100A200085B000200490039002900190009033481C
:100A3000006801210843314908603048C030806AAD
:100A40000F21C90288432D49C03188620846806A57
:100A50000721C90208432949C031886200BF2748DD
:100A600000680221084003900498401C04900398F9
:100A7000002803D1224904988842F0D11F48006819
:100A800002210840002802D00120039001E000204C
:100A90000390039801282FD11A4800680290029809
:100AA000C008C0000290022102980843154908605E
:100AB000124840680190F0210198884301900F4945
:100AC0000198486008464068009007210902009894
:100AD00088430090094900984860084640688008AB
:100AE0008000486008464068486000BF034840688E
:100AF0000C2108400028F9D105B0704700100240D1
:100B0000FFFF000000200240042806D106490969C1
:100B100004221143044A116105E0034909690422D2
:100B20009143014A1161704700E000E07047000006
:100B300010B50D480068012108430B4908600846BC
:100B400040680A490840084948600846006B13217C
:100B500088430549086300208860FFF737FF0020BD
:100B60000349486310BD0000001002401CB8FFF8A4
:100B700040200240002904D0026801231A43026089
:100B800003E002685208520002607047F0B587B077
:100B900004460D46002700200690002620684008E5
:100BA00040002060666803210903304688430646FA
:100BB000A86806436660266827480640E9686868B2
:100BC00008432969084306432660A66803210902F1
:100BD00030468843064668690643A6606846FFF7C4
:100BE0004FFE1E48844202D10598069001E002980B
:100BF000069020680121C903084000280CD029680C
:100C0000069A5000FFF7CBFA07462968069A50006B
:100C1000FFF7C5FA0E4609E029680698FFF7BFFA04
:100C2000074629680698FFF7BAFA0E462868400872
:100C3000B04200D87F1C20680121C9030840002869
:100C400006D03807460F3846054908403043074666
:100C5000B8B2E06007B0F0BDF3E9FFFF0038014033
:100C6000F0FF000000B589B001210805FFF7D8FDAD
:100C700001218803FFF7F4FD202006900221684639
:100C80000177012141770021C177817706A90E48BC
:100C9000FFF762FB012205210B48FFF7B0FBE120C3
:100CA00040020090002001900290039005900C20DB
:100CB000049069460548FFF769FF01210348FFF7E3
:100CC00059FF09B000BD0000000C00480038014089
:100CD00000BF704710B50420C043FFF715FF074958
:100CE00007480068FFF75BFA064908700846007875
:100CF0007D21C90048430449088010BD00127A00D4
:100D00000C00002000000020020000200146114AD3
:100D100012884A43104B5A6100229A611A4612699E
:100D200001231A430C4B1A6100BF0B4A1069C2071A
:100D3000D20F002A04D0012212040240002AF4D06B
:100D4000054A126952085200034B1A6100229A6147
:100D5000704700000200002000E000E0FFF7BAFF4B
:100D6000FFF7F8FC00240AE0FFF717FD6420FFF707
:100D7000CDFFFFF70BFD6420FFF7C8FF641C052CB7
:100D8000F2DBFFF76FFFFFF785FC00BFFEE7010016
:100D90000600010001000100010001000100020045
:100DA0000400080010004000800000010002000064
:100DB0000000010203040000D80D0008000000201C
:100DC0001000000004010008E80D000810000020D9
:100DD000E0040000200100080000000000000A0AF2
:080DE000000000000048E801DA
:04000005080000C12E
:00000001FF
